:100000000C94D6170C9400180C9400180C9400183B
:100010000C9400180C9400180C9400180C94001800
:100020000C9400180C9400180C9400180C940018F0
:100030000C9400180C94655F0C9400180C94001834
:100040000C9400180C94A14C0C94F38B0C94001895
:100050000C9439410C9400180C9400180C9400185E
:100060000C9400180C9400180C9400180C940018B0
:100070000C9400180C9400180C9400180C940018A0
:100080000C9400180C9400180C940018F24C014DBC
:10009000204D2F4D4A4D4F4D524D574D5A4D5F4DAE
:1000A000624D674D714D066F096FFC6E006F206FDA
:1000B000206F0D6F116F176F1B6FF06FF56FFA6F79
:1000C0000470327032700E7016701E702870084AFC
:1000D000D73B3BCE016E84BCBFFDC12F3D6C74315C
:1000E0009ABD56833DDA3D00C77F11BED9E4BB4CB3
:1000F0003E916BAAAABE000000803F05A84CCDB27D
:10010000D44EB93836A9020C50B9918688083CA65D
:10011000AAAA2ABE000000803F00434F4D4D554E15
:1001200049434154494F4E0044525952554E00459F
:1001300052524F525300494E464F004543484F00DC
:1001400047322F47332062616420706172616D65B0
:10015000746572730A00536C6565702E2E2E003321
:1001600044205072696E7465722072656164792EE4
:1001700000526573756D696E67207072696E7400E8
:100180005761697420666F7220757365722E2E2E0A
:10019000004E6F206D6F76652E00456E6420666997
:1001A0006C65206C6973740A00426567696E20662D
:1001B000696C65206C6973740A005344207072691D
:1001C0006E74696E67206279746520004E6F7420CA
:1001D0005344207072696E74696E670A0046696CD8
:1001E000652064656C657465643A0044656C65748B
:1001F000696F6E206661696C65642C2046696C6568
:100200003A20006F70656E206661696C65642C2011
:1002100046696C653A20002569730025696D2025C3
:100220006973002569682025696D2025697300259B
:100230006964202569682025696D2025697300257A
:10024000697920256964202569682025696D202544
:100250006973005072696E742074696D653A20008C
:1002600050726F7465637465642050696E0A00484B
:10027000656174696E672E2E2E00334420507269BA
:100280006E7465722072656164792E003B013601DF
:100290002F0128011A016F66660044454255473A0E
:1002A000004B494C4C45442E20004D3131332053F6
:1002B000006F6B0048656174696E6720646F6E65DE
:1002C0002E003F0A0020573A0048656174696E6746
:1002D0002E2E2E003344205072696E746572207287
:1002E000656164792E0042656420646F6E652E003E
:1002F0003F0A0020573A00426564204865617469EE
:100300006E672E003344205072696E746572204F00
:1003100066662E004649524D574152455F4E414D4B
:10032000453A4D61726C696E20312E312E302D525E
:10033000433820284769746875622920534F555205
:1003400043455F434F44455F55524C3A687474705F
:10035000733A2F2F6769746875622E636F6D2F4D26
:1003600061726C696E4669726D776172652F4D615D
:10037000726C696E2050524F544F434F4C5F56453C
:100380005253494F4E3A312E30204D414348494E49
:10039000455F545950453A3344205072696E746534
:1003A000722045585452554445525F434F554E5460
:1003B0003A3120555549443A636564653261326685
:1003C0002D343161322D343734382D396231322DAC
:1003D0006335356336326633363766660A007A5FD0
:1003E0006D696E3A2000795F6D696E3A2000785F22
:1003F0006D696E3A20005265706F7274696E672085
:10040000656E6473746F70207374617475730A0021
:100410004D31343520533C696E6465783E206F75EC
:1004200074206F662072616E67652028302D312937
:100430000A0053657474696E672054726176656C46
:1004400020416363656C65726174696F6E3A200068
:1004500053657474696E67205265747261637420A9
:10046000416363656C65726174696F6E3A20005315
:10047000657474696E67205072696E74204163639D
:10048000656C65726174696F6E3A200053657474AF
:10049000696E67205072696E7420616E64205472B8
:1004A0006176656C20416363656C65726174696F28
:1004B0006E3A2000205A00205900580020204D613B
:1004C000783A2000205A00205900580020204D6919
:1004D0006E3A20004F6E20004F666600536F6674C0
:1004E00020656E6473746F70733A200020643A0064
:1004F00020693A0020703A0043290A0061626C6565
:100500006420286D696E2074656D702000436F6CE7
:10051000642065787472756465732061726520006B
:1005200023646566696E65202044454641554C54F8
:100530005F4B64200023646566696E652020444536
:100540004641554C545F4B69200023646566696ED3
:1005500065202044454641554C545F4B7020005067
:100560004944204175746F74756E652066696E69C3
:1005700073686564212050757420746865206C610F
:100580007374204B702C204B6920616E64204B6487
:1005900020636F6E7374616E74732066726F6D206A
:1005A00062656C6F7720696E746F20436F6E666949
:1005B0006775726174696F6E2E680A005049442035
:1005C0004175746F74756E65206661696C65642130
:1005D0002074696D656F75740A0050494420417537
:1005E000746F74756E65206661696C656421205452
:1005F000656D706572617475726520746F6F2068C7
:100600006967680A00204B643A2000204B693A2051
:1006100000204B703A20000A20436C6173736963B9
:1006200020504944200A002054753A2000204B7580
:100630003A2000206D61783A2000206D696E3A20E2
:100640000020643A200020626961733A20004F66FE
:100650006673657473206170706C696564004572BF
:10066000723A20546F6F206661722100546F6F20C0
:100670006661722066726F6D207265666572656E66
:10068000636520706F696E740A00416374697665F2
:100690002045787472756465723A2000556E6B6EF1
:1006A0006F776E20636F6D6D616E643A2022004E2D
:1006B0006F204C696E65204E756D6265722077699A
:1006C000746820636865636B73756D2C204C61736F
:1006D00074204C696E653A20004B494C4C45442EC1
:1006E000200053544F505045442E20005072696EE4
:1006F0007465722073746F70706564206475652012
:10070000746F206572726F72732E20466978207440
:100710006865206572726F7220616E642075736502
:10072000204D39393920746F207265737461727489
:100730002E202854656D706572617475726520692C
:10074000732072657365742E20536574206974205C
:1007500061667465722072657374617274696E6724
:10076000290A004E6F20436865636B73756D2077AF
:10077000697468206C696E65206E756D6265722C97
:10078000204C617374204C696E653A200063686583
:10079000636B73756D206D69736D617463682C2074
:1007A0004C617374204C696E653A20004C696E652B
:1007B000204E756D626572206973206E6F74204CD7
:1007C000617374204C696E65204E756D6265722B85
:1007D000312C204C617374204C696E653A20004DB9
:1007E000313130004D3331004D38342058205920FC
:1007F0005A20450053442072656164206572726F0F
:10080000720A00446F6E65207072696E74696E675B
:100810002066696C650A0020496E76616C69642007
:1008200065787472756465722000000048430000AA
:1008300048430000484300000000000000000000A2
:10084000000020746F6F206C6F6E67206578747283
:100850007573696F6E2070726576656E7465640A73
:100860000020636F6C6420657874727573696F6EB5
:100870002070726576656E7465640A002042403AA5
:100880000020403A00202F0020423A00202F002074
:10089000543A00205A3A0020593A0020436F756EAE
:1008A0007420583A200020453A00205A3A00205936
:1008B0003A00583A0025753A253032750025303215
:1008C000753A253032750025756420253032753A29
:1008D00025303275005A00590058000920000000E8
:1008E000000000000000000000007FFFE0000000AA
:1008F0000000000000000000007000E000000000A8
:10090000000000000000000061F86000000000002E
:100910000000000000000041F8200000000000007E
:1009200000000000000040F0200000000000000077
:1009300000000000004060200000000000000000F7
:10094000000000005801A07F8000000000000000AF
:100950004104005C63A0FFC0000000000000002014
:1009600082005EF7A0FFC0000000000000002082AF
:10097000005EF7A0FFC0000000000000004104007E
:100980005C63A07F80000000000000008208005827
:1009900001A07F8000000000000001041000406002
:1009A00020FFC00000000000000104100040F02003
:1009B000FFC00000000000000082080041F820FF96
:1009C000C00000000000000041040061F8603F002A
:1009D000000000000000000000007000E01E0000A9
:1009E000000000000001FFFF807FFFE00C0000001E
:1009F0000000000001FFFF80000000000000000078
:100A0000000000000000007FFFE000000000000088
:100A10000000000000007000E00000000000000086
:100A20000000000000630C600000000000000000F7
:100A300000000000470E2000000000000000000041
:100A40000000004F0F200000000000000000000028
:100A500000005F0FA0000000000000000000000088
:100A6000005E07A07F80000000000000004104003D
:100A7000406020FFC0000000000000002082004015
:100A8000F020FFC00000000000000020820040F0C5
:100A900020FFC00000000000000041040040602072
:100AA0007F80000000000000008208005E07A07F39
:100AB00080000000000000010410005F0FA0FFC0D4
:100AC000000000000000010410004F0F20FFC000D4
:100AD000000000000000820800470E20FFC0000058
:100AE0000000000000410400630C603F00000000B3
:100AF000000000000000007000E01E000000000088
:100B0000000001FFFF807FFFE00C000000000000FC
:100B10000001FFFF80000000496E69742E205344DD
:100B20002063617264004E6F2053442063617264DD
:100B3000004D3231004368616E6765205344206385
:100B4000617264005072696E742066726F6D20531A
:100B5000440053746F70207072696E740052657334
:100B6000756D65207072696E74004D323100506190
:100B7000757365207072696E7400436F6E74726F66
:100B80006C00507265706172650054756E65004945
:100B90006E666F2073637265656E0000060900FE65
:100BA000000000000001090008FE0000050808061A
:100BB000000040F0C88888987810050808060000F2
:100BC000C0F88888888888F8050505060001203067
:100BD000F830200508080600002070F820202020AA
:100BE000E00509090600FF2070A8A8B888887020D1
:100BF0000509090600FFE080C0B0A82830282805B4
:100C000009090600FFF8A88888888888A8F8050AD6
:100C10000A0600FE205050505088A8A88870030390
:100C20000306000340A040544845524D414C205219
:100C3000554E4157415900546865726D616C2052A0
:100C4000756E61776179004572723A204D41585452
:100C5000454D5020424544004572723A204D41585E
:100C600054454D50004D415854454D5020747269C3
:100C7000676765726564004572723A204D494E544B
:100C8000454D5020424544004572723A204D494E30
:100C900054454D50004D494E54454D502074726995
:100CA00067676572656400000000000000000000D6
:100CB0000000000000000000000000000000000034
:100CC0000000000000000000000000000000000024
:100CD0000000000000000000000000000000000014
:100CE0000000000000000000000000000000000004
:100CF00000000000000000000000000000000000F4
:100D000000000000000000000000000000000000E3
:100D100000000000000000000000000000000000D3
:100D200000000000000000000000000000000000C3
:100D300000000000000000000000000000000000B3
:100D400000000000000000000000000000000000A3
:100D50000000000000000000000000000000000093
:100D60000000000000000000000000000000000083
:100D70000000000000000000000000000000000073
:100D80000000000000000000000000000000000063
:100D90000000000000000000000000000000000053
:100DA0000000000000000000000000000000000043
:100DB00000000000000000070000038000000000A9
:100DC000000000000000001FC0000FE07C03E0787E
:100DD0001C0781E0F03E0E7FE0003FF07E07E0FC64
:100DE0001C0381C1F83F0E7FF8007FF07E07E0FC16
:100DF0001C03C3C1F83F0E7BFE01FEF07F0FE1FE36
:100E00001C01C383FC3F8E7CFF87F9F0770EE1FE67
:100E10001C01E783FC3B8E7F7FCFF7F0779EE1CE0E
:100E20001C00E7039C3BCE7F9FFFCFF0739CE3CF7A
:100E30001C00FF079E39CE7FE7FF3FF073FCE3877E
:100E40001C007E070E39EE7FFBFEFFF071F8E38792
:100E50001C007E0F0F38EE7FFCF9FFF071F8E7FF02
:100E60009C003C0FFF38FE7FFF27FFF070F0E7FF8C
:100E70009C003C0FFF387E7FFFDFFFF070F0EFFF3C
:100E8000DC003C1FFFB87E7FDFFFDFF07060EF0308
:100E9000DFF83C1E07B83E7FC7FF1FF07060EE0111
:100EA000DFF83C1C03B83E7FC3FE1FF07000EE016C
:100EB000DFF83C1C03B81E7FC3FE1FF000000000DB
:100EC000000000000000007FC3DE1FF07FFFFFFF77
:100ED000FFFFFFFFFFFFFE7FC3DE1FF07FFFFFFF6F
:100EE000FFFFFFFFFFFFFE7FC3DE1FF07C3FFAFB2B
:100EF000FFFFFFFD7ABFFE7FC3DE1FF07D9FFBFF7C
:100F0000FFFFFFFF7EF7FE7FC3DE1FF07D931A8A8F
:100F100018E38C451AA2DE3FC3DE0FF07C2DCACA4F
:100F2000D6E924CD6AB6BE1F83DE07E07DA36A9AA8
:100F3000D6E926656AB63E0603DE01807D910A8AFF
:100F4000D8E38C451AB37E0003DE00007FFFFFFF6D
:100F5000FEEFFFFFFFFF7E0003DE00007FFFFFFFCD
:100F6000F1EFFFFFFFFEFE0003DE00007FFFFFFF4B
:100F7000FFFFFFFFFFFFFE0003DE00007FFFFFFF1C
:100F8000FFFFFFFFFFFFFE0003DE00000000000088
:100F9000000000000000000001DC00000000000074
:100FA00000000000000000000050000000000000F1
:100FB0000000000000000000000000000000000031
:100FC0000000000000000000000000000000000021
:100FD0000000000000000000000000000000000011
:100FE0000000000000000000000000000000000001
:100FF00000000000000000000000000000000000F1
:1010000000000000000000000000000000000000E0
:1010100000000000000000000000000000000000D0
:1010200000000000000000000000000000000000C0
:1010300000000000000000000000000000000000B0
:1010400000000000000000000000000000000000A0
:101050000000000000000000000000000000000090
:101060000000000000000000000000000000000080
:101070000000000000000000000000000000000070
:101080000000000000000000000000000000000060
:101090000000000000000000000000000000000050
:1010A000000000000000004572726F7220777269C4
:1010B00074696E6720746F20454550524F4D210A68
:1010C00000206279746573290A0053657474696E2F
:1010D00067732053746F7265642028004545505231
:1010E0004F4D20636865636B73756D206D69736D1B
:1010F000617463680A00206279746573290A0020AC
:1011000073746F7265642073657474696E6773209D
:10111000726574726965766564202800486172643E
:10112000636F6465642044656661756C7420536503
:101130007474696E6773204C6F616465640A002083
:10114000204D3230302044300A0020204D323030E3
:101150002044002044697361626C65640A0046693A
:101160006C616D656E742073657474696E67733A33
:101170000020440020490020204D33303120500011
:101180005049442073657474696E67733A0A00208D
:10119000460020420020480020204D3134352053A5
:1011A000004D6174657269616C2068656174757069
:1011B00020706172616D65746572733A0A00205A1D
:1011C0000020590020204D323036205800486F6DE5
:1011D00065206F666673657420286D6D290A00208E
:1011E0004500205A00205900205800204200205479
:1011F0000020204D323035205300416476616E630B
:101200006564207661726961626C65733A20533D52
:101210004D696E20666565647261746520286D6D28
:101220002F73292C20543D4D696E207472617665B0
:101230006C20666565647261746520286D6D2F731E
:10124000292C20423D6D696E696D756D207365674F
:101250006D656E742074696D6520286D73292C206E
:10126000583D6D6178696D756D205859206A6572B9
:101270006B20286D6D2F73292C20205A3D6D6178CD
:10128000696D756D205A206A65726B20286D6D2F0F
:1012900073292C2020453D6D6178696D756D204561
:1012A000206A65726B20286D6D2F73290A00205407
:1012B0000020520020204D32303420500041636322
:1012C000656C65726174696F6E733A20503D70721F
:1012D000696E74696E672C20523D72657472616329
:1012E0007420616E6420543D74726176656C0A00EE
:1012F000204500205A0020590020204D3230312056
:1013000058004D6178696D756D20416363656C654A
:10131000726174696F6E20286D6D2F7332293A0ADD
:1013200000204500205A0020590020204D32303343
:101330002058004D6178696D756D20666565647231
:101340006174657320286D6D2F73293A0A0020455A
:1013500000205A0020590020204D393220580053D7
:10136000746570732070657220756E69743A0A0036
:1013700024F4D43050C38E20C2A24017828B701147
:10138000127A910D816CD90AA861E108C7586607E5
:10139000615143061E4B5D05C145A7041A41110466
:1013A000093D9803713931034036DB026533910200
:1013B000D4305402802E1D02632CEE01752AC50123
:1013C000B028A001102781018F2564012B244B0137
:1013D000E0223401AC211F018D200D01801FFC0093
:1013E000841EED00971DDF00B81CD200E61BC6006E
:1013F000201BBC00641AB200B219A8000A19A00090
:101400006A189900D117910040178B00B516840017
:1014100031167E00B31579003A157300C7146F00BA
:1014200058146A00EE1366008813630025135E00EB
:10143000C7125B006C12570015125400C111510005
:1014400070114F0021114B00D61049008D1047003C
:101450004610440002104200C00F4000800F3E00C2
:10146000420F3C00060F3B00CB0E3800930E3700B6
:101470005C0E3500270E3400F30D3200C10D310033
:10148000900D3000600D2E00320D2D00050D2C004A
:10149000D90C2B00AE0C2900850C29005C0C270010
:1014A000350C27000E0C2600E80B2400C40B24008A
:1014B000A00B23007D0B23005A0B2100390B2100C8
:1014C000180B2000F80A1F00D90A1E00BB0A1E00D4
:1014D0009D0A1D00800A1D00630A1C00470A1B00AC
:1014E0002C0A1B00110A1A00F7091A00DD0919005D
:1014F000C4091900AB091900920917007B091800EB
:10150000630917004C091600360916002009160059
:101510000A091500F5081500E0081400CC081400AD
:10152000B8081400A4081400900813007D081200E5
:101530006B08130058081200460812003408110006
:10154000230811001208110001081100F007100013
:10155000E0071000D0071000C0071000B0070F0010
:10156000A107100091070E0083070F0074070F00FA
:1015700065070E0057070E0049070E003B070D00D8
:101580002E070E0020070D0013070D0006070D00A3
:10159000F9060C00ED060D00E0060C00D4060C0068
:1015A000C8060C00BC060C00B0060C00A4060B001C
:1015B00099060C008D060B0082060B0077060B00C7
:1015C0006C060B0061060A0057060B004C060A0069
:1015D00042060A0038060A002E060A0024060A00FF
:1015E0001A060A001006090007060A00FD05090090
:1015F000F4050900EB050900E2050900D905090019
:10160000D0050900C7050900BE050900B505080099
:10161000AD050800A50509009C0508009405080013
:101620008C050800840508007C0508007405080086
:101630006C050700650508005D05070056050800F4
:101640004E0507004705070040050800380507005C
:10165000310507002A050700230507001C050600C1
:10166000160507000F05070008050600020507001C
:10167000FB040600F5040700EE040600E80406007B
:10168000E2040700DB040600D5040600CF040600D0
:10169000C9040600C3040600BD040600B704060022
:1016A000B1040500AC040600A6040600A004050071
:1016B0009B04060095040500900406008A040500BA
:1016C00085040500800406007A0405007504050001
:1016D000700405006B040500660405006104050044
:1016E0005C04050057040500520405004D04050084
:1016F00048040500430405003E0404003A040500C4
:1017000035040500300404002C04050027040400FF
:10171000230405001E0404001A0404001604050036
:10172000110404000D04040009040500040404006D
:1017300000040400FC030400F8030400F4030400A4
:10174000F0030400EC030400E8030400E4030400D5
:10175000E0030400DC030400D8030400D403040005
:10176000D0030400CC030400C8030300C503030036
:1017700024F404D9201BC40C5C0E9804C4095F0235
:1017800065077101F405F900FB04B3004804870004
:10179000C10369005803550003034500BE023A0027
:1017A0008402310053022A0029022500040220008D
:1017B000E4011C00C8011900AF01170098011400D2
:1017C00084011300710110006101100051010E002D
:1017D00043010D0036010B002B010B0020010B0013
:1017E000150109000C01090003010800FB000800B5
:1017F000F3000800EB000700E4000600DE0006002E
:10180000D8000600D2000600CC000500C700050085
:10181000C2000500BD000400B9000400B5000400CA
:10182000B1000400AD000400A9000400A5000300FD
:10183000A20003009F0004009B0003009800030027
:101840009500020093000300900003008D00020049
:101850008B00030088000200860002008400030061
:10186000810002007F0002007D0002007B00020078
:101870007900020077000100760002007400020087
:1018800072000100710002006F0002006D00010093
:101890006C0002006A00010069000200670001009C
:1018A00066000100650001006400020062000100A2
:1018B00061000100600001005F0002005D000100A6
:1018C0005C0001005B0001005A00010059000100AA
:1018D00058000100570001005600010055000100AA
:1018E00054000100530000005300010052000100A9
:1018F00051000100500001004F0001004E000000A7
:101900004E0001004D0001004C0001004B000000A2
:101910004B0001004A00010049000100480000009E
:101920004800010047000100460000004600010099
:101930004500000045000100440001004300000094
:10194000430001004200000042000100410000008D
:1019500041000100400001003F0000003F00010085
:101960003E0000003E0001003D0000003D0001007F
:101970003C0000003C0000003C0001003B00000077
:101980003B0001003A0000003A000100390000006D
:101990003900010038000000380000003800010064
:1019A000370000003700010036000000360000005C
:1019B0003600010035000000350000003500010050
:1019C0003400000034000000340001003300000047
:1019D000330000003300010032000000320000003C
:1019E0003200010031000000310000003100010030
:1019F0003000000030000000300001002F00000027
:101A00002F0000002F0000002F0001002E0000001A
:101A10002E0000002E0001002D0000002D0000000F
:101A20002D0000002D0001002C0000002C00000003
:101A30002C0000002C0001002B0000002B000000F7
:101A40002B0000002B0001002A0000002A000000EB
:101A50002A0000002A0001002900000029000000DF
:101A600029000000290000002900010028000000D2
:101A700028000000280000002800000028000100C5
:101A800027000000270000002700000027000000BA
:101A900027000100260000002600000026000000AC
:101AA000260000002600010025000000250000009F
:101AB0002500000025000000250000002500010091
:101AC0002400000024000000240000002400000086
:101AD0002400010023000000230000002300000078
:101AE0002300000023000000230000002300010069
:101AF000220000002200000022000000220000005E
:101B0000220000002200010021000000210000004E
:101B10002100000021000000210000002100000041
:101B20002100010020000000200000002000000033
:101B30002000000020000000200000002000000025
:101B4000200001001F0000001F0000001F00000017
:101B50001F0000001F0000001F0000001F00010008
:101B60001E0000001E0000001E0000001E000000FD
:101B70004D383420582059205A2045006265640AA7
:101B8000002C2073797374656D2073746F707065A9
:101B90006421204865617465725F49443A200048B9
:101BA000656174696E67206661696C65640048658B
:101BB0006174696E67206661696C6564004865617F
:101BC00074696E67206661696C656400486561745C
:101BD000696E67206661696C6564004D6F7665208B
:101BE00058004D6F76652059004D6F7665205A007C
:101BF00045787472756465720045787472756465B1
:101C000072004D6F7665205A004D6F766520590041
:101C10004D6F76652058004D6F7665206178697349
:101C2000004D6F766520302E316D6D004D6F7665FD
:101C300020316D6D004D6F76652031306D6D005037
:101C400072657061726500526573746F72652066AB
:101C500061696C73616665004C6F6164206D656DD0
:101C60006F72790053746F7265206D656D6F727954
:101C70000046696C616D656E74004D6F74696F6EBE
:101C80000054656D7065726174757265004D6169AF
:101C90006E00507265686561742041425320636F25
:101CA0006E66005072656865617420504C41206317
:101CB0006F6E66005049442D44005049442D440045
:101CC0005049442D49005049442D49005049442D64
:101CD00050005049442D5000200820466163740094
:101CE00020082046616374002008204D61780020A0
:101CF00008204D6178002008204D696E00200820E2
:101D00004D696E004F6666004F6E20004175746F1E
:101D100074656D700046616E207370656564004681
:101D2000616E20737065656400426564004265649D
:101D3000004E6F7A7A6C65004E6F7A7A6C6500435C
:101D40006F6E74726F6C0053746F7265206D656D89
:101D50006F72790042656400426564004E6F7A7A62
:101D60006C65004E6F7A7A6C650046616E20737008
:101D70006565640046616E20737065656400546536
:101D80006D70657261747572650000002100240039
:101D900027002A0000002200250028002B00000058
:101DA0002000230026002900020202020202020291
:101DB00004040404040404040303030303030303EB
:101DC000010101010101010101020408102040800C
:101DD0000102040810204080010204081020408005
:101DE00080402010080402010000000102000000F1
:101DF00000000000040308070000000000000000CD
:101E000000000000000000004B494C4C45442E20CF
:101E100000202D20496E76616C69642065787472AB
:101E200075646572206E756D62657220210A0020EE
:101E300020506C616E6E657242756666657242799D
:101E40007465733A20002046726565204D656D6F9C
:101E500072793A2000312E312E302D5243380A004B
:101E60004D61726C696E0020536F667477617265A4
:101E70002052657365740A00205761746368646F4B
:101E8000672052657365740A002042726F776E2076
:101E90006F75742052657365740A00204578746507
:101EA000726E616C2052657365740A00506F7765BD
:101EB0007255700A0073746172740A006572726FF1
:101EC000722077726974696E6720746F2066696C1E
:101ED000650A00456E6473746F7073202563202556
:101EE0006320256320256300205A3A0020593A00D8
:101EF00020583A00656E6473746F7073206869745B
:101F00003A2000446F6E6520736176696E672066C3
:101F1000696C652E0A004D32390043616E6E6F7434
:101F200020656E746572207375626469723A200070
:101F3000022E2E000152656672657368004D61695C
:101F40006E007C3C3E5E2B3D3F2F5B5D3B2C2A228E
:101F50005C0053442063617264206F6B0A006F70F1
:101F6000656E526F6F74206661696C65640A0076F5
:101F70006F6C756D652E696E6974206661696C653C
:101F8000640A00534420696E6974206661696C0AB2
:101F9000006175746F25692E67004D3234004D3233
:101FA000332025730057726974696E6720746F203F
:101FB00066696C653A20006F70656E206661696CB9
:101FC00065642C2046696C653A20006F70656E2050
:101FD0006661696C65642C2046696C653A20004630
:101FE000696C652073656C65637465640A002053D1
:101FF000697A653A200046696C65206F70656E6588
:10200000643A20006F70656E206661696C65642CAF
:102010002046696C653A20002066696C653A2000AC
:102020004E6F7720002220706F7300222070617243
:10203000656E743A2200535542524F5554494E45ED
:102040002043414C4C207461726765743A22004B06
:10205000494C4C45442E2000747279696E67207497
:102060006F2063616C6C207375622D67636F6465AC
:102070002066696C6573207769746820746F6F20BF
:102080006D616E79206C6576656C732E204D4158BC
:10209000206C6576656C2069733A004572726F72C8
:1020A0003A0000060900FE070192032120FFFF0805
:1020B000FF07FF000000060000010707060200807E
:1020C000808080800080030202060105A0A0050731
:1020D000070600005050F850F8505005070706005A
:1020E000002078A07028F020050707060000C0C86F
:1020F00010204098180507070600006090A040A82F
:102100009068020303060104C0408003070706012C
:1021100000204080808040200307070601008040A7
:10212000202020408005050506000120A870A82079
:102130000505050600012020F82020020303060201
:10214000FFC04080050101060003F80202020602FA
:1021500000C0C005050506000108102040800507E5
:1021600007060000708888888888700307070601C2
:102170000040C040404040E005070706000070886E
:1021800008708080F8050707060000F81020100886
:1021900008F005070706000010305090F8101005F1
:1021A0000707060000F880F0080888700507070692
:1021B0000000708080F0888870050707060000F82E
:1021C000081020202020050707060000708888706E
:1021D00088887005070706000070888878080870EE
:1021E000020505060200C0C000C0C00206060602C5
:1021F000FFC0C000C0408004070706000010204058
:1022000080402010050303060002F800F8040707C9
:1022100006010080402010204080050707060000CE
:102220007088081020002005070706000070880845
:1022300068A8A870050707060000708888F88888D5
:1022400088050707060000F08888F08888F00507F1
:1022500007060000708880808088700507070600E8
:1022600000F08888888888F0050707060000F88055
:1022700080F08080F8050707060000F88080F08075
:102280008080050707060000708880B88888700580
:102290000707060000888888F888888801070706ED
:1022A000020080808080808080050707060000385B
:1022B0001010101090600507070600008890A0C05D
:1022C000A09088050707060000808080808080F845
:1022D00005070706000088D8A888888888050707AA
:1022E0000600008888C8A8988888050707060000A7
:1022F00070888888888870050707060000F088883D
:10230000F080808005070706000070888888A89004
:1023100068050707060000F08888F0A09088050788
:1023200007060000788080700808F005070706009F
:1023300000F82020202020200507070600008888BC
:10234000888888887005070706000088888888883C
:1023500050200507070600008888888888A850054F
:102360000707060000888850205088880507070660
:10237000000088888850202020050707060000F804
:102380000810204080F8030707060100E0808080E5
:102390008080E00505050600018040201008030745
:1023A00007060100E02020202020E00503030600AE
:1023B00004205088050101060000F802020206020E
:1023C0000580400505050600007008788878050737
:1023D000070600008080B0C88888F0050505060063
:1023E000007080808870050707060000080868985C
:1023F0008888780505050600007088F88070050754
:10240000070600003048E040404040050606060050
:10241000FF7088887808700507070600008080B084
:10242000C8888888010707060200800080808080B5
:10243000800308080601FF200020202020A040047F
:102440000707060000808090A0C0A0900307070641
:102450000100C04040404040E0050505060000D0B6
:10246000A8A8A8A8050505060000B0C888888805A2
:10247000050506000070888888700506060600FFBE
:10248000F08888F080800506060600FF7888887846
:102490000808050505060000B0C880808005050510
:1024A00006000070807008F0040707060000404036
:1024B000E04040403005050506000088888898689F
:1024C00005050506000088888850200505050600DA
:1024D000008888A8A85005050506000088502050EF
:1024E000880506060600FF888888780870050505B7
:1024F000060000F8102040F80307070601002040FE
:1025000040804040200107070602008080808080D4
:10251000808003070706010080404020404080057E
:1025200002020600026890000000060000000000A1
:102530000600000000000600000000000600000089
:102540000000060000000000060000000000060079
:10255000000000000600000000000600000000006F
:102560000600000000000600000000000600000059
:102570000000060000000000060000000000060049
:10258000000000000600000000000600000000003F
:102590000600000000000600000000000600000029
:1025A0000000060000000000060000000000060019
:1025B000000000000600000000000600000000000F
:1025C00006000000000006000000000006000000F9
:1025D00000000600000000000600000000000600E9
:1025E00000000000060000000000060000000000DF
:1025F00006000001070706020080008080808080BE
:102600000507070600002070A8A0A870200507078E
:10261000060000304040E04050A8050505060000D7
:102620008870507088050707060000885020F82041
:10263000F820010707060200808080008080800566
:102640000808060000304820505020906003010127
:10265000060107A0050707060000F888B8B8B88883
:10266000F8050707060001700878887800F8050566
:10267000050600012850A05028050303060001F8B4
:10268000080802020206020640800507070600004D
:10269000F888A88898A8F8050101060006F804043F
:1026A00004060003609090600507070600002020E4
:1026B000F8202000F804050506000360902040F093
:1026C000030505060003E020E020E0020202060206
:1026D0000640800508080600FF8888888898E880FA
:1026E00080050707060000789898781818180202E5
:1026F00002060202C0C00202020602FF4080030579
:102700000506000340C04040E005070706000170D1
:102710008888887000F8050505060001A05028503B
:10272000A00507070600008890A858B80808050704
:10273000070600008890B848982038050808060069
:1027400000C040C048D83808080507070600002028
:1027500000204080887005080806000040200070B6
:1027600088F888880508080600001020007088F89E
:1027700088880508080600002050007088F88888BE
:102780000508080600006890007088F88888050829
:10279000080600005000708888F888880508080638
:1027A00000002050207088F8888805070706000080
:1027B0003860A0B8E0A0B80508080600FF7088805F
:1027C0008088702060050808060000402000F8801E
:1027D000F080F8050808060000081000F880F08076
:1027E000F8050808060000205000F880F080F80581
:1027F00007070600005000F880F080F8030808067C
:102800000100804000E0404040E00308080601006D
:10281000204000E0404040E003080806010040A0DE
:1028200000E0404040E0030707060100A000E04050
:102830004040E0050707060000704848E848487037
:1028400005080806000068900088C8A89888050850
:1028500008060000402070888888887005080806EF
:10286000000010207088888888700508080600001D
:10287000205000708888887005080806000068905D
:10288000007088888870050808060000500070886D
:102890008888887005050506000188502050880545
:1028A00008080600FF1070A8A8A8A870400508082E
:1028B000060000402088888888887005080806007F
:1028C0000010208888888888700508080600002085
:1028D0005000888888887005080806000050008825
:1028E0008888888870050808060000102088502015
:1028F0002020200509090600FFC0407048487040AC
:1029000040E00408080601FF609090A09090E080ED
:10291000050808060000402000700878887805083F
:10292000080600001020007008788878050808065E
:10293000000020500070087888780508080600001C
:102940006890007008788878050707060000500036
:102950007008788878050808060000205020700864
:10296000788878050606060000D02878A0A85005CB
:1029700006060600FF7080887020600508080600C3
:10298000004020007088F8807005080806000010DC
:1029900020007088F88070050808060000205000AC
:1029A0007088F8807005070706000050007088F8EE
:1029B000807003080806010080400040C04040E0ED
:1029C00003080806010020400040C04040E0030822
:1029D0000806010040A00040C04040E00307070691
:1029E0000100A00040C04040E0050707060000A02D
:1029F00040A010788870050808060000689000B0B4
:102A0000C88888880508080600004020007088886B
:102A100088700508080600001020007088888870FB
:102A20000508080600002050007088888870050896
:102A300008060000689000708888887005070706FF
:102A40000000500070888888700505050600012088
:102A500000F800200507070600FF1070A8A8A8705E
:102A6000400508080600004020008888889868050E
:102A70000808060000102000888888986805080863
:102A8000060000205000888888986805070706001F
:102A900000500088888898680509090600FF102002
:102AA00000888888F808700407070601FFC04060A6
:102AB000506040E00508080600FF500088888878CC
:102AC0000870526573656E643A20006F6B00627522
:102AD00073793A2070617573656420666F7220693E
:102AE0006E7075740A00627573793A20706175733F
:102AF000656420666F7220757365720A0062757373
:102B0000793A2070726F63657373696E670A004B60
:102B1000494C4C45442E2000506C65617365207211
:102B200065736574005052494E5445522048414CDB
:102B3000544544005072696E7465722068616C740B
:102B400065642E206B696C6C28292063616C6C6550
:102B500064210A00656E7175657565696E6720226E
:102B6000000000000000000000000000005761723B
:102B70006E696E673A20486F6D696E672042756DA9
:102B8000702044697669736F72203C20310A00001E
:102B900000A0400000A040000000400000484300AA
:102BA00000484300004843FFFFFF70012C019001E3
:102BB0002701B0012201C0011D01F001180110021E
:102BC000130130020E016002090190020401C002EB
:102BD000FF000003FA004003F5008003F000D0037B
:102BE000EB002004E6007004E100E004DC00400596
:102BF000D700C005D2004006CD00D006C80080072F
:102C0000C3003008BE00F008B900C009B400B00A23
:102C1000AF00B00BAA00D00CA500000EA000500F12
:102C20009B00C01096005012910000148C00C0153B
:102C30008700B0178200B0197D00D01B7800001EFD
:102C4000730040206E0090226900F0246400402749
:102C50005F0090295A00E02B5500102E50002030C4
:102C60004B0010324600E033410090353C001037F5
:102C7000370070383200A0392D00B03A2800A03B50
:102C80002300603C1E00103D1900903D1400103ED2
:102C90000F00703E0A00C03E0500003F0000436187
:102CA0006E6E6F74206F70656E20737562646972EA
:102CB00020006563686F3A00466C6F7700466C6F62
:102CC000770046616E2073706565640046616E2012
:102CD00073706565640042656400426564004E6F10
:102CE0007A7A6C65004E6F7A7A6C65005370656510
:102CF00064005370656564004D61696E00507265D3
:102D00006865617420504C412042656400507265D2
:102D10006865617420504C41005072657061726545
:102D200000507265686561742041425320426564B9
:102D300000507265686561742041425300507265AD
:102D400070617265004D34323800436F6F6C646F90
:102D5000776E00507265686561742041425300507F
:102D600072656865617420504C41004D38340044F0
:102D7000697361626C65207374657070657273004D
:102D80004D6F766520617869730053657420686FB4
:102D90006D65206F66667365747300473238004155
:102DA00075746F20686F6D65004D61696E004573C5
:102DB000746570732F6D6D004573746570732F6D3E
:102DC0006D005A73746570732F6D6D005A7374655E
:102DD00070732F6D6D005973746570732F6D6D0076
:102DE0005973746570732F6D6D00587374657073CB
:102DF0002F6D6D005873746570732F6D6D00412DCC
:102E000074726176656C00412D74726176656C0038
:102E1000412D7265747261637400412D7265747224
:102E200061637400416D6178204500416D617820D7
:102E30004500416D6178205A00416D6178205A004B
:102E4000416D6178205900416D6178205900416DD4
:102E50006178205800416D617820580056547261A5
:102E600076206D696E005654726176206D696E0031
:102E7000566D696E00566D696E00566D617820451D
:102E800000566D6178204500566D6178205A0056D5
:102E90006D6178205A00566D6178205900566D6139
:102EA00078205900566D6178205800566D61782061
:102EB000580056652D6A65726B0056652D6A6572FD
:102EC0006B00567A2D6A65726B00567A2D6A6572B0
:102ED0006B0056792D6A65726B0056792D6A6572A2
:102EE0006B0056782D6A65726B0056782D6A657294
:102EF0006B00416363656C00416363656C00436F05
:102F00006E74726F6C0046696C2E204469612E00ED
:102F100046696C2E204469612E004F6666004F6E34
:102F200020004520696E206D6D3300436F6E747212
:102F30006F6C0020746F6F206C6F6E672065787403
:102F4000727573696F6E2070726576656E746564F4
:102F50000A0020636F6C6420657874727573696F02
:102F60006E2070726576656E7465640A004E414E1F
:102F7000494E495459494E46CDCCCC3D0AD7233C05
:102F800017B7D13877CC2B329595E6241FB14F0A6D
:102F9000000020410000C84200401C4620BCBE4C3E
:102FA000CA1B0E5AAEC59D747FC05EC011241FBEE1
:102FB000CFEFD0E4DEBFCDBF13E0A0E0B1E0ECE99D
:102FC000FBE901E00BBF02C007900D92A032B107F0
:102FD000D9F722E1A0E2B3E001C01D92A23DB20701
:102FE000E1F717E1C5EDD7E104C02197FE010E948A
:102FF000A6C1C43DD107C9F70E9441BB0C94C1CD05
:103000000C9400002F923F924F925F926F927F92AA
:103010008F929F92AF92BF92CF92DF92EF92FF92E8
:103020000F931F93CF93DF93CDB7DEB7CF58D1095E
:103030000FB6F894DEBF0FBECDBF0091240C20E682
:10304000029F800111240C55154F109336030093F5
:1030500035038091C61280FF18C0E2EBFCE2849138
:103060007F013FEFE31AF30A882321F00E94283AF8
:10307000F701F5CFD8018D918D01882319F00E94B9
:10308000283AF8CF8AE00E94283A209135033091FF
:103090003603F90180812F5F3F4F8032D1F3F093E7
:1030A0003603E09335038E3469F0109135030091B7
:1030B00036036AE270E0812F902F0E940DC50097C1
:1030C000D1F420C0818190ED980F9A3010F08D32AC
:1030D00061F73296DF0131962C9120532A30D0F3DC
:1030E000CD01FC01019620812032D9F3F093360303
:1030F000E0933503DACFFC0131968291803231F0D2
:103100008A3221F0A12FB02F9D9102C01082F5CFFD
:10311000FD01808111968032D9F380538A3020F0EE
:10312000E2EBFCE20C949333E12CF12C2AE02E9D8F
:10313000B0012F9D700D11247B01B0E3EB1AF10853
:103140008191E80EF11C87FDFA94808180538A30CA
:1031500070F38F013196D8018C918032D1F31093A6
:103160002E0300932D0321E030E03093020F2093D3
:10317000010F9D3409F4AFC7943511F40C945D33FD
:10318000973411F00C947533B4E0EB16F10409F4A4
:103190007EC540F4F2E0EF16F104E8F40E942F3A05
:1031A0000C948A332AE5E216F10409F4D2C638F405
:1031B0004CE1E416F10409F4A8C50C948A335BE5EC
:1031C000E516F10409F4C9C68CE5E816F10409F422
:1031D000C9C60C948A3380911D01882311F40C9484
:1031E0008A3311E092E0E916F10409F010E00E9440
:1031F000E53782E50E94D136882309F452C10E9446
:103200001E376B017C014090730A5090740A6090E5
:10321000750A7090760A2091770A3091780A409169
:10322000790A50917A0A2BAF3CAF4DAF5EAF8091D7
:10323000170F9091180FA091190FB0911A0F2396A4
:103240008CAF9DAFAEAFBFAF239720911B0F3091D6
:103250001C0F40911D0F50911E0F2B962CAF3DAFB0
:103260004EAF5FAF2B9720E030E0A901C701B60158
:103270000E9491C9882309F4F0C4A3019201239606
:103280006CAD7DAD8EAD9FAD23970E9491C981112C
:103290000FC02BAD3CAD4DAD5EAD2B966CAD7DAD95
:1032A0008EAD9FAD2B970E9491C9882309F4D5C498
:1032B00020E030E0A901C701B6010E9491C9881F32
:1032C0008827881F18130BC080E090E0A0E8BFE3B8
:1032D00067968CAF9DAFAEAFBFAF67970AC020E0D7
:1032E00030E040E85FEB67962CAF3DAF4EAF5FAF8D
:1032F0006797A301920123966CAD7DAD8EAD9FAD16
:1033000023970E94BEC12F966CAF7DAF8EAF9FAF4B
:103310002F972BAD3CAD4DAD5EAD2B966CAD7DAD1D
:103320008EAD9FAD2B970E94BEC163966CAF7DAFF3
:103330008EAF9FAF63972F962CAD3DAD4EAD5FAD79
:103340002F97CA01B9010E94F7C94B015C0163962E
:103350002CAD3DAD4EAD5FAD6397CA01B9010E9482
:10336000F7C99B01AC01C501B4010E94BFC10E9415
:103370006DC427966CAF7DAF8EAF9FAF279720E0CF
:1033800030E040E05FE30E94F7C94B015C01A70118
:103390009601C701B6010E94F7C96B017C01A50126
:1033A0009401C501B4010E94F7C99B01AC01C7019A
:1033B000B6010E94BEC10E946DC49B01AC0167961C
:1033C0006CAD7DAD8EAD9FAD67970E94F7C94B0187
:1033D0005C0123962CAD3DAD4EAD5FAD2397C3018F
:1033E000B2010E94BFC120E030E040E05FE30E94F4
:1033F000F7C96B017C0163966CAD7DAD8EAD9FAD61
:103400006397905827962CAD3DAD4EAD5FAD279795
:103410000E94B9C29B01AC01C501B4010E94F7C969
:103420009B01AC01C701B6010E94BFC1A30192017B
:103430000E94BEC16B017C012B962CAD3DAD4EAD03
:103440005FAD2B976BAD7CAD8DAD9EAD0E94BFC1C6
:1034500020E030E040E05FE30E94F7C92B013C012F
:1034600027962CAD3DAD4EAD5FAD27972F966CAD39
:103470007DAD8EAD9FAD2F970E94B9C29B01AC016F
:10348000C501B4010E94F7C99B01AC01C301B2019F
:103490000E94BFC12BAD3CAD4DAD5EAD0E94BEC123
:1034A00014C089E40E94D136882329F00E941E3777
:1034B0006B017C0103C0C12CD12C76018AE40E94EF
:1034C000D1368823D9F00E941E376BAF7CAF8DAF09
:1034D0009EAF20E030E0A901C701B6010E9491C96A
:1034E00081111AC020E030E0A9016BAD7CAD8DAD3B
:1034F0009EAD0E9491C981110FC0AFC320E030E0A2
:10350000A901C701B6010E9491C9882309F4A5C386
:103510001BAE1CAE1DAE1EAEA7019601C701B601C3
:103520000E94F7C94B015C012BAD3CAD4DAD5EADCA
:10353000CA01B9010E94F7C99B01AC01C501B401E0
:103540000E94BFC10E946DC4AF966CAF7DAF8EAFBD
:103550009FAFAF978091730A9091740AA091750AFA
:10356000B091760A27968CAF9DAFAEAFBFAF2797CD
:10357000A7019601BC01CD010E94BFC167966CAF47
:103580007DAF8EAF9FAF67972091770A3091780A11
:103590004091790A50917A0A2F962CAF3DAF4EAFE9
:1035A0005FAF2F972BAD3CAD4DAD5EAD2F966CADA3
:1035B0007DAD8EAD9FAD2F970E94BFC16B966CAF56
:1035C0007DAF8EAF9FAF6B9780917B0A90917C0A05
:1035D000A0917D0AB0917E0A6F968CAF9DAFAEAF81
:1035E000BFAF6F979C01AD0160911F0F7091200FCD
:1035F0008091210F9091220F0E94BEC163966CAF03
:103600007DAF8EAF9FAF63972091230F3091240F32
:103610004091250F5091260FE3962CAF3DAF4EAF52
:103620005FAFE39780917F0A9091800AA091810A11
:10363000B091820AA3968CAF9DAFAEAFBFAFA397F8
:10364000A7019601505823962CAF3DAF4EAF5FAF08
:1036500023978BAD9CADADADBEADB0582B968CAF66
:103660009DAFAEAFBFAF2B972091170F3091180FC2
:103670004091190F50911A0FA7962CAF3DAF4EAF46
:103680005FAFA79767962CAD3DAD4EAD5FAD679729
:10369000A7966CAD7DAD8EAD9FADA7970E94BEC1C4
:1036A0006B017C0180911B0F90911C0FA0911D0F4D
:1036B000B0911E0FAB968CAF9DAFAEAFBFAFAB97C7
:1036C0006B962CAD3DAD4EAD5FAD6B97BC01CD01A2
:1036D0000E94BEC14B015C01A701960123966CAD0F
:1036E0007DAD8EAD9FAD23970E94F7C92B013C01A4
:1036F000A50194012B966CAD7DAD8EAD9FAD2B9742
:103700000E94F7C99B01AC01C301B2010E94BFC175
:103710002B013C01A501940123966CAD7DAD8EADCE
:103720009FAD23970E94F7C94B015C01A701960149
:103730002B966CAD7DAD8EAD9FAD2B970E94F7C9DA
:103740009B01AC01C501B4010E94BEC1A30192015D
:103750000E943EC26B017C0120E030E0A9010E9482
:1037600091C987FF0AC02BED3FE049EC50E4C70147
:10377000B6010E94BFC16B017C01112351F02BEDFA
:103780003FE049EC50E4C701B6010E94BEC16B01A5
:103790007C0120E030E0A901C701B6010E9491C977
:1037A00081112AC0A7962CAD3DAD4EAD5FADA79758
:1037B00027966CAD7DAD8EAD9FAD27970E9491C9C8
:1037C00081111AC0AB962CAD3DAD4EAD5FADAB9740
:1037D0002F966CAD7DAD8EAD9FAD2F970E9491C998
:1037E00081110AC02BED3FE049EC50E4C701B6015E
:1037F0000E94BFC16B017C01AF962CAD3DAD4EADBB
:103800005FADAF97C701B6010E94F7C99B01AC013C
:103810000E94F7C94B015C0163962CAD3DAD4EADE6
:103820005FAD6397CA01B9010E94F7C99B01AC0162
:10383000C501B4010E94BFC10E946DC44B015C016F
:103840002FE632E143E85AE30E9491C987FD01C2A5
:10385000C501B4010E9461C30E9432C32D967FAF9F
:103860006EAF2D97DB01AB2B31F4E1E0F0E02D964C
:10387000FFAFEEAF2D972D962EAD3FAD2D97B90131
:1038800080E090E00E9496C94B015C019B01AC0175
:10389000C701B6010E94B9C227966CAF7DAF8EAF4B
:1038A0009FAF2797A501940163966CAD7DAD8EAD5A
:1038B0009FAD63970E94B9C2A7966CAF7DAF8EAFE4
:1038C0009FAFA797A3962CAD3DAD4EAD5FADA3972F
:1038D000E3966CAD7DAD8EAD9FADE3970E94BEC10A
:1038E000A50194010E94B9C2AB966CAF7DAF8EAFBB
:1038F0009FAFAB9727962CAD3DAD4EAD5FAD2797F3
:10390000CA01B9010E94F7C920E030E040E05FE35E
:103910000E94F7C99B01AC0160E070E080E89FE382
:103920000E94BEC163966CAF7DAF8EAF9FAF6397B1
:103930006F968CAD9DADAEADBFAD6F9789879A8701
:10394000AB87BC87A3962CAD3DAD4EAD5FADA397C5
:103950002D873E874F87588B60918C0170918D0128
:10396000072E000C880B990B0E9498C9209100012A
:103970003091010140910201509103010E94F7C969
:103980002AE037ED43E25CE30E94F7C96F966CAF23
:103990007DAF8EAF9FAF6F970E94E78B9B01AC010D
:1039A00028533F4F4F4F5F4FA3962CAF3DAF4EAFC5
:1039B0005FAFA3974FAC21965FAC219722966FAC77
:1039C000229723967FAC239722242394312CD12C49
:1039D0002D968EAD9FAD2D972816390609F425C179
:1039E0000E945A5C0E94E78BDC01CB01A3962CADB0
:1039F0003DAD4EAD5FADA397821B930BA40BB50BF2
:103A0000B7FD10C00E94E78B9B01AC0128533F4FCC
:103A10004F4F5F4FA3962CAF3DAF4EAF5FAFA39715
:103A20000E94E596D39438E13D150CF44BC06396A3
:103A30002CAD3DAD4EAD5FAD63972B966CAD7DADBE
:103A40008EAD9FAD2B970E94F7C94B015C01279665
:103A50002CAD3DAD4EAD5FAD2797B201C3010E94C5
:103A6000F7C9A50194010E94BFC17B018C01639637
:103A70002CAD3DAD4EAD5FAD6397B201C3010E9469
:103A8000F7C94B015C0127962CAD3DAD4EAD5FAD46
:103A900027972B966CAD7DAD8EAD9FAD2B970E9479
:103AA000F7C99B01AC01C501B4010E94BEC12B0145
:103AB0003C01C701D8012B968CAF9DAFAEAFBFAF15
:103AC0002B9756C0B10180E090E00E9496C92796DE
:103AD0002CAD3DAD4EAD5FAD27970E94F7C94B01B0
:103AE0005C010E94B4C26B017C01C501B4010E945B
:103AF0005FC44B015C01A701960123966CAD7DADBF
:103B00008EAD9FAD23970E94F7C92B013C01A50103
:103B100094016BAD7CAD8DAD9EAD0E94F7C99B014C
:103B2000AC01C301B2010E94BFC12B013C01A50140
:103B3000940123966CAD7DAD8EAD9FAD23970E9411
:103B4000F7C94B015C01A70196016BAD7CAD8DAD52
:103B50009EAD0E94F7C99B01AC01C501B4010E9452
:103B6000BEC12B966CAF7DAF8EAF9FAF2B97D12C84
:103B70009201A30167966CAD7DAD8EAD9FAD679749
:103B80000E94BFC169837A838B839C832B962CAD63
:103B90003DAD4EAD5FAD2B976B966CAD7DAD8EADF3
:103BA0009FAD6B970E94BFC16D837E838F83988783
:103BB000A7962CAD3DAD4EAD5FADA79769857A85D3
:103BC0008B859C850E94BFC169877A878B879C877C
:103BD000AB962CAD3DAD4EAD5FADAB976D857E85A3
:103BE0008F8598890E94BFC16D877E878F87988B4C
:103BF000CE0101960E940C99C09027036F96ECAC01
:103C0000FDAC0EAD1FAD6F979E01235F3F4FAE0120
:103C1000475F5F4FBE016B5F7F4FCE0101960E94F1
:103C200004AC4FEF241A340AD3CEC09027036F960A
:103C3000ECACFDAC0EAD1FAD6F9723E23FE04FE162
:103C40005FE06BE17FE087E19FE00E9404AC0E94AF
:103C5000A8360E941D3A0C948A33EBE9F0E2849175
:103C60008F010F5F1F4F882321F00E94283AF8012F
:103C7000F6CFE0E4F1E084918F010F5F1F4F8823BE
:103C800011F40C948A330E94283AF801F4CF80E5AD
:103C90000E94D136882329F00E9413376B017C01E2
:103CA00003C0C12CD12C760183E50E94D136882334
:103CB00021F00E9459386B017C010E94215F0E9413
:103CC0001D3A8091030F9091040FA091050FB091C0
:103CD000060FC80ED91EEA1EFB1E809147018111F6
:103CE00005C060E086E591E00E9459920E94E78B52
:103CF000DC01CB018C199D09AE09BF09B7FD02C0DB
:103D00000C948A330E94E596F1CF0E94215F409087
:103D100000015090010160900201709003014092F7
:103D200031035092320360923303709234038091D6
:103D30008C0190918D019093300380932F0384E642
:103D400090E090938D0180938C010E941D3A81E058
:103D500080933C0188E50E94D136382E89E50E9487
:103D6000D136182F8AE50E94D136082F311005C0B0
:103D7000111105C091E0982705C0111102C090E013
:103D800001C0982F9093040180E1E3E7FAE0A7E1F6
:103D9000BFE001900D928A95E1F7911105C03110B5
:103DA00003C0112309F493C020E030E040EA50E45E
:103DB00060916F0A7091700A8091710A9091720AF5
:103DC0000E94BFC12091130F3091140F4091150F25
:103DD0005091160F0E94BFC16B017C0160931F0FB1
:103DE0007093200F8093210F9093220F80907B0A75
:103DF00090907C0AA0907D0AB0907E0AA501940163
:103E00000E941FC418160CF062C0A7019601C501DC
:103E1000B4010E9491C987FF16C080E090E0A0E83D
:103E2000B0E48093000190930101A0930201B0934C
:103E30000301C0927B0AD0927C0AE0927D0AF09244
:103E40007E0A0E94B23685E595E5A5E0B3E480934D
:103E5000000190930101A0930201B09303010E941D
:103E6000B236C0901F0FD090200FE090210FF0903D
:103E7000220FA701960160917B0A70917C0A8091C4
:103E80007D0A90917E0A0E941FC41816B4F480E047
:103E900090E0A0E8B0E48093000190930101A0932A
:103EA0000201B0930301C0927B0AD0927C0AE09297
:103EB0007D0AF0927E0A0E94B2360E94215F4092F3
:103EC0000001509201016092020170920301809101
:103ED0000401811102C0332021F080E090E00E94B3
:103EE000409580910401811102C0112321F081E0ED
:103EF00090E00E94409580910401811102C000234E
:103F000021F082E090E00E9440950E94E538809187
:103F1000320580933C018091310390913203A0914E
:103F20003303B09134038093000190930101A09377
:103F30000201B093030180912F039091300390937D
:103F40008D0180938C010E941D3A0E94D53F0C94F4
:103F50008A3310922C030C948A3381E080932C03D3
:103F60000C948B3385E40E94D136B82E811102C0A7
:103F70000E94215F3DEA832E31E0932E43E7C42E59
:103F80004AE0D42E5BE0E52E5FE0F52E00E010E085
:103F9000A12CD4018D914D010E94D136882309F4C2
:103FA0004EC0F6012081318142815381C257DF4FDB
:103FB0002883CE58D040C157DF4F3883CF58D040E8
:103FC000C457DF4F4883CC58D040C357DF4F588386
:103FD000CD58D0400E941E37D6016D937D938D93AE
:103FE0009C931397C257DF4F2881CE58D040C157BA
:103FF000DF4F3881CF58D040C457DF4F4881CC586D
:10400000D040C357DF4F5881CD58D0400330110501
:10401000B1F00E94BEC19B01AC01F70160817181CA
:10402000828193810E94BFC1D7016D937D938D934F
:104030009C931397C8010E94A739AA24A3940F5FE9
:104040001F4FB4E0CB0ED11CE4E0EE0EF11C0430A7
:10405000110509F09ECFAA2019F00E94E53837C05B
:10406000BB20A9F1C0907F0AD090800AE090810A1D
:10407000F090820A20917612309177124091781256
:1040800050917912C701B6010E94F7C90E942CC451
:1040900060939B0F70939C0F80939D0F90939E0F46
:1040A000C701B6010E942BC32FB7F8946093E909AA
:1040B0007093EA098093EB099093EC092FBF10925B
:1040C0008B0F10928C0F10928D0F10928E0F0E94FA
:1040D000D53F0C948A33FFE6EF16F10409F4AEC520
:1040E00008F0C2C03AE2E316F10409F4EAC408F0A9
:1040F00060C057E1E516F10409F473C268F592E176
:10410000E916F10411F40C94632AB0F4B2E0EB1652
:10411000F10408F49FC1E1E1EE16F10411F00C94F2
:104120008A3360E081E991E00E9459925E985E983E
:1041300015985E980C948A33F5E1EF16F10409F4B2
:1041400046C208F048C234E1E316F10411F00C94C1
:104150008A33E9EAF1E0F8C14BE1E416F10409F42D
:1041600064C240F489E1E816F10409F44CC208F491
:104170003FC24DC2AEE1EA16F10409F492C268F4FE
:10418000ECE1EE16F10411F00C948A3340E060E0AB
:10419000C8010E942C850C948A33FFE1EF16F104CC
:1041A00009F4E7C320E2E216F10409F492C30C9487
:1041B0008A3335E5E316F10411F40C94922A40F5A4
:1041C00051E5E516F10411F40C94452AA0F49CE4A1
:1041D000E916F10409F4BDC4ADE4EA16F10409F4EA
:1041E000D2C4BBE4EB16F10411F00C948A330E94A4
:1041F000E0890C948A33E3E5EE16F10411F40C9493
:104200005E2A10F00C94632A10922B030C948A33CC
:104210002AE6E216F10411F40C940D2A88F448E61B
:10422000E416F10409F4B3C408F0BDC58CE5E81642
:10423000F10411F00C948A330E9447370C948A33AE
:104240009CE6E916F10409F465C510F40C94332AD0
:10425000BDE6EB16F10409F4C3C5EEE6EE16F10473
:1042600009F4D9C40C948A33FEECEF16F10411F46E
:104270000C94F62C08F06EC039E7E316F10411F443
:104280000C94222B40F553E7E516F10411F40C943D
:10429000A92A60F491E7E916F10409F43FC510F08A
:1042A0000C94A52A81EA92E00E947996B7E7EB1672
:1042B000F10411F40C94B72A10F00C941B2BF5E7C1
:1042C000EF16F10411F00C948A3360E0C8010E94EB
:1042D0006E920C948A3328ECE216F10411F40C94DB
:1042E0009F2B90F441E9E416F10411F40C94282B6F
:1042F0005EEBE516F10409F41BC78CE8E816F1043F
:1043000011F00C948A3336C59BECE916F10411F4D4
:104310000C94032C88F4B9ECEB16F10411F00C9416
:104320008A3332E8E32E32E1F32E0DEA11E044E065
:10433000D42ED00E0C94EA2BECECEE16F10411F412
:104340000C94212CFDECEF16F10411F40C948B2C41
:104350000C948A3320E9E21621E0F20611F40C9461
:104360002A32F0F542EEE416F10411F40C94F92D22
:10437000B0F48CEDE816F10411F40C94D32D9DEDFE
:10438000E916F10411F40C94E02DA3EDEA16F10402
:1043900011F00C948A33E2EBFCE20C943D2DBDE26B
:1043A000EB16B1E0FB0611F40C944A2E48F4FCE243
:1043B000EF16F1E0FF0611F40C94242E0C948A33CE
:1043C0002EE2E21621E0F20611F40C94EA2E3FE20E
:1043D000E31631E0F30611F40C945B2F0C948A334E
:1043E00045EFE41641E0F40611F40C943B33C8F4B5
:1043F0008CEAE81681E0F80611F40C942D3294EF63
:10440000E91691E0F90611F40C943833AAE9EA169A
:10441000A1E0FA0611F00C948A330E94EF380C9454
:104420008A33B7EFEB16B1E0FB0611F40C9441337D
:1044300010F40C943E33F0EAEF16F3E0FF0609F4B3
:104440008EC227EEE21623E0F20611F40C944D33EF
:104450000C948A3380E50E94D136882361F00E9453
:1044600013376B017C01BB24B394672B682B692B3A
:1044700031F4B12C04C0B12CC12CD12C760183E5D0
:104480000E94D136882399F00E9459386B017C0133
:10449000B1100FC0672B682B692B59F4D8018C9190
:1044A000882339F061E0C8010E946E9207C0BB20EA
:1044B000A9F360E080E891E00E94599281E0809346
:1044C000460C83E090E09093020F8093010F0E94CE
:1044D000215F0E941D3AC114D104E104F104E9F006
:1044E0008091030F9091040FA091050FB091060FDA
:1044F000C80ED91EEA1EFB1E0E94E78BDC01CB0111
:104500008C199D09AE09BF09B7FF1AC08091460CEE
:104510008823B1F00E94E596EFCF8091460C882366
:1045200019F00E94E596F9CF8091CF0F60E08823C3
:1045300019F081E791E002C08FE591E00E94599265
:104540001092460C0C948A3384918F010F5F1F4F99
:10455000882321F00E94283AF801F6CF10925512D4
:104560001092541240E050E0BA0180E090E10E94C5
:104570001C7C8BE1E0E0F0E1DE01159601900D92EC
:104580008A95E1F78091FE0F9091FF0F9C838B83BA
:1045900085E792E09A83898340E050E0BE016F5F37
:1045A0007F4F81E193E00E94FD9CCE0101960E9425
:1045B0006796EAE9F1E084918F010F5F1F4F88232E
:1045C00011F40C948A330E94283AF801F4CF0E9427
:1045D00063880C948A331092CF0F1092D00F0C94F2
:1045E0008A3340E061E0C8010E942C850C948A3334
:1045F0008091D00F882319F081E08093CF0F0E9423
:10460000E0890C948A331092CF0F0C948A338091F6
:10461000D00F882311F40C948A3383E50E94D1369D
:1046200081110C94AE330C948A338091D00F88237F
:1046300051F1EAEBF1E084918F010F5F1F4F882366
:1046400021F00E94283AF801F6CF60914B12709148
:104650004C1280914D1290914E124AE00E94583BAC
:104660008FE20E94283A609147127091481280911F
:10467000491290914A124AE00E94583B8AE00E94F7
:10468000283A0C948A33ECECF1E084918F010F5FAF
:104690001F4F882311F40C948A330E94283AF801A2
:1046A000F4CF8091D00F882311F40C948A338AE9D7
:1046B00091E10E94D97B8AE991E10E94798210926E
:1046C000CE0F1092CD0FE0902D03F0902E0380912D
:1046D000D00F882311F40C948A330E94D69A1D823D
:1046E00018861C821B8285E792E09A8389838CEF6F
:1046F0009FE090931C1080931B10F70180818F32F4
:1047000009F068C06FE270E0C7010E940DC58C011E
:104710000F5F1F4F9E012F5F3F4F4901011511058C
:1047200009F45EC06FE270E0C8010E940DC56C0123
:10473000009709F456C00817190708F052C05C0129
:10474000A01AB10AA501B801CE0180960E9436C513
:10475000E0E2F0E0EC0FFD1FEA0DFB1D10828E0180
:10476000005E1F4FD8018D918D01882319F00E94A2
:10477000283AF8CF8AE00E94283A60911B10709185
:104780001C106115710511F06C5F7F4F21E0AE01C7
:10479000405E5F4FCE0105960E948282811112C059
:1047A000BE01605E7F4F83E092E00E94313B8EE26B
:1047B0000E94283A8AE00E94283AC4010E94679623
:1047C0000C948A3390921C1080921B1086010F5F0C
:1047D0001F4FA4CF8DE190E190931C1080931B108C
:1047E000870160911B1070911C106115710511F00B
:1047F0006C5F7F4F18A21BA222E0A801CE01809619
:104800000E948282811102C0F12C1EC0CE018096CE
:104810000E94449A8823C1F36CA57DA58EA59FA50F
:1048200041E00E94257A882379F3E8A9B0E2EB9F62
:10483000F0011124E45AF34F309731F385EE808371
:104840001BA20E94E579F82ECE0180960E94F439D1
:10485000FF2009F1EDEDF1E084917F012FEFE21AE5
:10486000F20A882321F00E94283AF701F5CFD801F7
:104870008D918D01882319F00E94283AF8CF8AE0A3
:104880000E94283A10924B1210924C1210924D1224
:1048900010924E1218C0EBEEF1E084917F01BFEF51
:1048A000EB1AFB0A882321F00E94283AF701F5CF82
:1048B000F80181918F01882319F00E94283AF8CFDE
:1048C0008EE20E94283ACE0101960E9467960C94CF
:1048D0008A338091CF0F81110E94215F00912D03B7
:1048E00010912E0361E270E0C8010E940DC500978F
:1048F00019F08C010F5F1F4F80E50E94D13688238D
:1049000049F0FF24F39480912003909121038017B4
:10491000910708F0F12C8091D00F882311F40C94AA
:104920008A334F2D61E0C8010E942C8583E50E94E7
:10493000D136882349F0809120039091210380177C
:10494000910710F40C94BF338091D00F882319F095
:1049500081E08093CF0FF1100C948A3350CE81E028
:104960008093CE0F40E060E0C8010E942C850C943B
:104970008A330E94C79C2CE3C22ED12CE12CF12C4F
:10498000A70196010E9485CD762E672ECA01B90136
:10499000A70196010E9485CD6B017C01CA01B90176
:1049A00028E130E040E050E00E9485CD4B015C0101
:1049B000C9016DE671E00E945FC18E010F5F1F4F5C
:1049C0006115710599F06F927F92DF92CF929F925D
:1049D0008F929F938F937F936F938FE392E09F9338
:1049E0008F931F930F930E9461C912C00097B1F07B
:1049F0006F927F92DF92CF929F928F929F938F932D
:104A00008FE292E09F938F931F930F930E9461C94F
:104A10000FB6F894DEBF0FBECDBF36C0811491042F
:104A2000A104B10479F06F927F92DF92CF929F92AE
:104A30008F9283E292E09F938F931F930F930E9434
:104A400061C9E6CFC114D104E104F10469F06F92A9
:104A50007F92DF92CF928BE192E09F938F931F938F
:104A60000F930E9461C9D4CF6F927F9287E192E049
:104A70009F938F931F930F930E9461C90F900F9084
:104A80000F900F900F900F9060E0C8010E946E92FF
:104A9000E2EBFCE284917F01BFEFEB1AFB0A882373
:104AA00021F00E94283AF701F5CFB80183E592E0A2
:104AB0000E94313B8AE00E94283A0E94FA390C9405
:104AC0008A3383E50E94D136882311F40C948A330B
:104AD0000E94A3B87C018F3F910519F010F00C944F
:104AE0008A3380E50E94D136882339F00E94A3B82A
:104AF0008C0197FF04C00C948A330BE110E0D02E98
:104B0000E1EBF1E0C801992721913191281739078C
:104B100031F022E0E130F207B9F70C947733EBE99A
:104B2000F0E284918F010F5F1F4F882321F00E94D4
:104B3000283AF801F6CFE0E6F2E084918F010F5FAA
:104B40001F4F882311F40C948A330E94283AF801ED
:104B5000F4CF8091BF0F9091C00F019711F00C948A
:104B60008A3382E090E09093C00F8093BF0F0E9441
:104B7000E78B6093C90F7093CA0F8093CB0F90930C
:104B8000CC0F0C948A330E94809B0C948A3388E665
:104B900090E00E94023F81110C948A338091C612EA
:104BA00083FF02C00C948A3383E50E94D1368823A8
:104BB00071F10E941E370E942BC37093360F6093D1
:104BC000350F0E94F4990E941E3720E030E04AEA37
:104BD00052E40E9491C918163CF00E94809B60E04C
:104BE0008AE792E00E9459920E941E372091370F67
:104BF0003091380F4091390F50913A0F0E941FC4E5
:104C000018162CF460E08FE692E00E9459920E9400
:104C10004BB90C948A338EE40E94D136882311F468
:104C20000C948A330E94B0B86093220370932303DC
:104C300080932403909325030C948A3383E50E9488
:104C4000D136882319F00E94E43601C080E08093B9
:104C5000C612E2EBFCE284918F010F5F1F4F8823A5
:104C600021F00E94283AF801F6CFEAE9F2E08491B7
:104C70008F010F5F1F4F882321F00E94283AF8010F
:104C8000F6CF8091C6128823A1F19CE8C92E92E04C
:104C9000D92EE12CF12C20E08091C61290E00E2C50
:104CA00002C0959587950A94E2F780FF17C0BB2450
:104CB000B394B20E222319F08CE20E94283AF60136
:104CC00025913491F901849189010F5F1F4F882349
:104CD00021F00E94283A9801F5CF2B2DFFEFEF1A13
:104CE000FF0A32E0C30ED11C45E0E416F104A1F640
:104CF0000CC0E6E9F2E084918F010F5F1F4F88231B
:104D000021F00E94283AF801F6CF8AE00E94283A62
:104D10000C948A33109205010C948A3383E50E9427
:104D2000D136882369F00E94E436809342018D33A6
:104D300010F40C948A338CE3809342010C948A33F0
:104D4000E2EBFCE284918F010F5F1F4F882321F07B
:104D50000E94283AF801F6CF4091420150E060E00D
:104D600070E08AEA92E00E94C03B8AE00E94283A02
:104D70000C948A338091C61283FF02C00C948A334C
:104D800083E50E94D136882311F40C948A330E9463
:104D90001E370E942BC37093440A6093430A0E94FB
:104DA0004F4F0C948A3389E690E00E94023F8111B4
:104DB00011C0E1EBF2E084918F010F5F1F4F882358
:104DC00021F00E94283AF801F6CF0E9494408AE030
:104DD0000E94283A1092020F1092010F0C94FD3598
:104DE0008DE690E00E94023F81110C948A338091FD
:104DF000C61283FF02C00C948A3383E50E94D13629
:104E000028968FAF2897811105C082E50E94D13680
:104E10008823C1F10E941E370E942BC37093360F66
:104E20006093350F0E94F4990E941E3720E030E015
:104E30004AEA52E40E9491C9181614F40C94D13332
:104E40000E94809B60E084ED92E00E945992609104
:104E5000350F7091360F072E000C880B990B0E94AE
:104E600098C92091370F3091380F4091390F5091E8
:104E70003A0F0E941FC418162CF460E089EC92E0EF
:104E80000E9459920E944BB981E0809305011092D3
:104E9000020F1092010F23961CAE1DAE1EAE1FAE68
:104EA000239727961CAE1DAE1EAE1FAE27971BAED6
:104EB0002C961FAE2C975CE360965FAF60978CE1F9
:104EC00064968FAF649796E468969FAF6897C12CFD
:104ED000D12C00E8E02E8FEBF82E812C912C540180
:104EE0006091350F7091360F072E000C880B990BCF
:104EF0000E9498C9162F072F782E692E262F372F3C
:104F0000482F592FB601C7010E9491C9882319F172
:104F10002091370F3091380F4091390F50913A0F4F
:104F2000612F702F872D962D0E9491C9881F882789
:104F3000881F8BAF2896AFAD2897AA2381F08823CE
:104F400071F080910501882311F40C948A3360E09C
:104F500084EB92E071C11C2D0D2D7E2C6F2C0E94D4
:104F6000E78B6B017C01DC01CB0127962CAD3DADBD
:104F70004EAD5FAD2797821B930BA40BB50BB7FD0E
:104F800047C0D701C60188519C4FAF4FBF4F2796EE
:104F90008CAF9DAFAEAFBFAF27970E949440E5ECBA
:104FA000F2E084912F019FEF491A590A882321F0DA
:104FB0000E94283AF201F5CF81149104A104B104B2
:104FC000D1F0D501C401805F984DAF4FBF4FBC01F8
:104FD000CD016C197D098E099F0928EE33E040E070
:104FE00050E00E9485CDCA01B9010E94DD3B8AE0F4
:104FF0000E94283A0DC0E2ECF2E084912F01AFEF5D
:105000004A1A5A0A882321F00E94283AF201F5CF61
:105010000E94E5960E941D3A2090370F3090380F7D
:105020004090390F50903A0F9101A201612F702FDB
:10503000872D962D0E94BEC19F7781149104A104F3
:10504000B10449F420E030E040E85FE30E9491C9F8
:1050500087FF0BC008C020E030E040E450E40E942D
:105060001FC4181614F446015701BBADBB2309F445
:1050700043C023962CAD3DAD4EAD5FAD23972115BA
:1050800031054105510541F0D701C601821B930B43
:10509000A40BB50BB7FD30C09101A2012C966FADEA
:1050A0002C9760967FAD609764968FAD64976896F5
:1050B0009FAD68970E94BEC120E030E040EC5FE306
:1050C0000E9491C987FD3DCFD701C601805A954105
:1050D000AF4FBF4F23968CAF9DAFAEAFBFAF2397FF
:1050E0002C962FAE2C9760963FAE609764964FAE8D
:1050F000649768965FAE689780910501882309F4EC
:1051000020CF81149104A104B10429F4C12ED02E22
:10511000E72CF62CE5CE90E1C91A97E2D90AE1080E
:10512000F108C818D908EA08FB08F7FE0ACFEECF45
:105130008091C61283FF02C00C948A3360E087EF2F
:1051400092E00E94599283E50E94D13628968FAF53
:10515000289781110C94D53382E50E94D1368111B4
:105160000C94D53381E0809305011092020F1092C8
:10517000010F809127038093260323961CAE1DAE5A
:105180001EAE1FAE239727961CAE1DAE1EAE1FAEE1
:1051900027971BAE2C961FAE2C97ACE36096AFAF53
:1051A0006097BCE16496BFAF6497E6E46896EFAFA2
:1051B0006897C12CD12CB0E8EB2E1FEBF12E812C7F
:1051C000912C54016091430A7091440A072E000CFF
:1051D000880B990B0E9498C9162F072F782E692EDD
:1051E000262F372F482F592FB601C7010E9491C98A
:1051F000882331F12091E5033091E6034091E703E4
:105200005091E803612F702F872D962D0E9491C930
:10521000881F8827881F8BAF2896FFAD2897FF230C
:1052200099F0882389F080910501882311F40C946A
:105230008A3360E086EE92E00E9459920C948A33A1
:105240001C2D0D2D7E2C6F2C0E94E78B6B017C0199
:10525000DC01CB0127962CAD3DAD4EAD5FAD279760
:10526000821B930BA40BB50BB7FD47C0D701C6013A
:1052700088519C4FAF4FBF4F27968CAF9DAFAEAFBD
:10528000BFAF27970E949440E3EFF2E084912F0193
:105290009FEF491A590A882321F00E94283AF20107
:1052A000F5CF81149104A104B104D1F0D501C4015A
:1052B000805F984DAF4FBF4FBC01CD016C197D0988
:1052C0008E099F0928EE33E040E050E00E9485CD32
:1052D000CA01B9010E94DD3B8AE00E94283A0DC054
:1052E000E0EFF2E084912F01AFEF4A1A5A0A8823C7
:1052F00021F00E94283AF201F5CF0E94E5960E9423
:105300001D3A2090E5033090E6034090E70350906B
:10531000E8039101A201612F702F872D962D0E9425
:10532000BEC19F7781149104A104B10449F420E027
:1053300030E040E85FE30E9491C987FF0BC008C0DE
:1053400020E030E040E450E40E941FC4181614F43A
:1053500046015701BBADBB2309F443C023962CADD6
:105360003DAD4EAD5FAD239721153105410551058A
:1053700041F0D701C601821B930BA40BB50BB7FDFF
:1053800030C09101A2012C966FAD2C9760967FAD35
:10539000609764968FAD649768969FAD68970E94FA
:1053A000BEC120E030E040EC5FE30E9491C987FD80
:1053B0003ACFD701C601805A9541AF4FBF4F2396D0
:1053C0008CAF9DAFAEAFBFAF23972C962FAE2C976F
:1053D00060963FAE609764964FAE649768965FAEF6
:1053E000689780910501882309F41DCF81149104E9
:1053F000A104B10429F4C12ED02EE72CF62CE2CE64
:1054000090E1C91A97E2D90AE108F108C818D90849
:10541000EA08FB08F7FE07CFEECF83E50E94D136FE
:10542000882321F00E9496B88C0102C00FEF10E093
:1054300080E50E94D136882319F00E9496B802C0F8
:1054400080E090E098010F3F110519F010F02FEF68
:1054500030E0892B11F00C948A333093420A209368
:10546000410A0C948A3380E50E94D136811106C02E
:105470001092420A1092410A0C948A330E9496B804
:10548000892B11F00C948A33F3CF0E949F4F0E9416
:10549000215F0E946F961092420A1092410A68EEB4
:1054A00073E080E090E00E943B7060E084E093E075
:1054B0000E9459920E94CE770C948A3381E08093A7
:1054C0002B030C948B3383E50E94D136882361F043
:1054D0000E945938609343017093440180934501C1
:1054E000909346010C948A3388E50E94D13681114D
:1054F0000C94EF3389E50E94D13681110C94EF337F
:105500008AE50E94D13681110C94EF3385E40E9424
:10551000D13681110C94EF330E94215F0E946F9667
:105520000C948A3383E50E94D136882311F40C94BD
:105530008A330E9459386093070F7093080F809345
:10554000090F90930A0F0C948A330E94D53F0C9454
:105550008A33E4E1F3E084918F010F5F1F4F8823CA
:1055600011F40C948A330E94283AF801F4CFE6EF44
:10557000F3E084918F010F5F1F4F882321F00E9479
:10558000283AF801F6CFEEEEF3E084918F010F5F39
:105590001F4F882321F00E94283AF801F6CF329B52
:1055A00003C001E812E002C006E812E0D8018D91C4
:1055B0008D01882319F00E94283AF8CF8AE00E94D2
:1055C000283AE6EEF3E084918F010F5F1F4F8823A6
:1055D00021F00E94283AF801F6CF339B03C001E87E
:1055E00012E002C006E812E0F80181918F018823E1
:1055F00019F00E94283AF8CF8AE00E94283AEEED8E
:10560000F3E084918F010F5F1F4F882321F00E94E8
:10561000283AF801F6CF349B03C001E812E002C03B
:1056200006E812E0D8018D918D01882309F46DCB35
:105630000E94283AF7CF81E080933C0180933205A5
:105640000C948B3310923C01109232050C948A33E7
:1056500083E50E94D1368823F9F00E94A3B8182F61
:105660008230D8F0EBE9F0E284918F010F5F1F4F99
:10567000882321F00E94283AF801F6CFE0E1F4E017
:1056800084918F010F5F1F4F882311F40C948A338C
:105690000E94283AF801F4CF10E088E40E94D13645
:1056A0008823B1F00E94A3B8E12FF0E08A3A910577
:1056B0003CF08530B1E09B072CF084E091E002C023
:1056C0008AEA90E0EE0FFF1FE75BF54F918380833E
:1056D00086E40E94D1368823A1F00E94A3B8E12F6E
:1056E000F0E0EE0FFF1FE35BF54F8F3F910519F0E0
:1056F00014F08FEF90E097FF02C080E090E091837C
:10570000808382E40E94D136882311F40C948A337A
:105710000E94A3B8E12FF0E08530910534F088387D
:1057200091052CF087E890E002C085E090E0EE0F54
:10573000FF1FEB5BF54F918380830C948A3388ECD9
:1057400090E00E94023F81110C948A3384E40E940D
:10575000D136882311F40C948A330E941E3711E04D
:1057600020E030E0A9010E9491C9811101C010E040
:105770001093BE12112359F10091260310E00E94EC
:105780001E37000F111F000F111FF801E556FE4FC5
:10579000608371838283938320E030E0A90160916C
:1057A0009B0170919C0180919D0190919E010E94AE
:1057B00091C981110CC080E090E0A0E4B0E4809336
:1057C0009B0190939C01A0939D01B0939E010E9428
:1057D0007F92A0C7F80181918F010E94D136882362
:1057E00051F00E941E370E9432C3D7016D937D9302
:1057F0008D939C931397B4E0EB0EF11CD012EACF7B
:105800000E94E06587C79AE9E92E92E1F92E0DEA38
:1058100011E024E0D22ED00EF80181918F010E9478
:10582000D136882341F00E941E37D7016D937D93B6
:105830008D939C931397B4E0EB0EF11CD012ECCF38
:1058400069C783E50E94D1368823D9F00E941E37AC
:10585000AB01BC014093BA125093BB126093BC12CF
:105860007093BD1240937A1250937B1260937C1216
:1058700070937D128CE894E00E941C418AE00E94A3
:10588000283A80E50E94D136882399F00E941E377D
:10589000AB01BC014093BA125093BB126093BC128F
:1058A0007093BD128FE694E00E941C418AE00E9432
:1058B000283A82E50E94D136882399F00E941E374B
:1058C000AB01BC0140937E1250937F126093801213
:1058D0007093811280E594E00E941C418AE00E944E
:1058E000283A84E50E94D136882309F413C70E9420
:1058F0001E37AB01BC0140937A1250937B12609328
:105900007C1270937D1282E394E00E941C418AE035
:105910000E94283AFFC683E50E94D136882351F0C1
:105920000E941E376093961270939712809398127C
:105930009093991284E50E94D136882351F00E94F9
:105940001E376093921270939312809394129093E7
:10595000951282E40E94D136882351F00E941337B9
:105960006093C2127093C3128093C4129093C512B5
:1059700088E50E94D136882351F00E941E3760933B
:10598000AA127093AB128093AC129093AD1289E57A
:105990000E94D136882351F00E941E376093AE12C8
:1059A0007093AF128093B0129093B1128AE50E9467
:1059B000D136882351F00E941E376093B212709343
:1059C000B3128093B4129093B51285E40E94D1363D
:1059D000882309F49FC60E941E376093B612709305
:1059E000B7128093B8129093B91294C61DEAA12EF3
:1059F00011E0B12E03E7C02E0AE0D02E87E6E82E94
:105A00008AE0F82E00E010E0F50181915F010E942C
:105A1000D136882311F10E941E372B013C01D7019A
:105A20002D913D914D915C910E94BEC19B01AC01B5
:105A3000F60160817181828193810E94BFC1D6018C
:105A40006D937D938D939C931397F70140825182C0
:105A500062827382C8010E94A7390F5F1F4FF4E072
:105A6000CF0ED11C24E0E20EF11C0330110561F6CB
:105A70000E94E5380E94D53F4DC684918F010F5F8B
:105A80001F4F882321F00E94283AF801F6CF83E5C2
:105A90000E94D136882321F00E946AB880939A012F
:105AA000ECEDF4E084918F010F5F1F4F882321F00C
:105AB0000E94283AF801F6CF80919A01811103C023
:105AC000E8EDF4E002C0E4EDF4E084918F010F5FB3
:105AD0001F4F882321F00E94283AF801F6CFECEC02
